{
  "contractName": "Kisaan",
  "abi": [
    {
      "inputs": [],
      "payable": false,
      "stateMutability": "nonpayable",
      "type": "constructor",
      "signature": "constructor"
    },
    {
      "constant": false,
      "inputs": [
        {
          "name": "_password",
          "type": "string"
        }
      ],
      "name": "ownerLogin",
      "outputs": [],
      "payable": false,
      "stateMutability": "nonpayable",
      "type": "function",
      "signature": "0x95bdfe03"
    },
    {
      "constant": false,
      "inputs": [
        {
          "name": "_password",
          "type": "string"
        }
      ],
      "name": "officialLogin",
      "outputs": [],
      "payable": false,
      "stateMutability": "nonpayable",
      "type": "function",
      "signature": "0x37ed41ad"
    },
    {
      "constant": false,
      "inputs": [],
      "name": "deposit",
      "outputs": [],
      "payable": true,
      "stateMutability": "payable",
      "type": "function",
      "signature": "0xd0e30db0"
    },
    {
      "constant": false,
      "inputs": [
        {
          "name": "_farmerAddress",
          "type": "address"
        }
      ],
      "name": "withdraw",
      "outputs": [],
      "payable": false,
      "stateMutability": "nonpayable",
      "type": "function",
      "signature": "0x51cff8d9"
    },
    {
      "constant": false,
      "inputs": [
        {
          "name": "_password",
          "type": "string"
        },
        {
          "name": "_farmerPassword",
          "type": "string"
        },
        {
          "name": "_farmerAddress",
          "type": "address"
        },
        {
          "name": "amount",
          "type": "uint256"
        }
      ],
      "name": "receivedGoods",
      "outputs": [],
      "payable": false,
      "stateMutability": "nonpayable",
      "type": "function",
      "signature": "0x881f1f21"
    },
    {
      "constant": false,
      "inputs": [
        {
          "name": "_officialPassword",
          "type": "string"
        },
        {
          "name": "_farmerAddress",
          "type": "address"
        },
        {
          "name": "_name",
          "type": "string"
        },
        {
          "name": "_password",
          "type": "string"
        }
      ],
      "name": "addFarmer",
      "outputs": [],
      "payable": false,
      "stateMutability": "nonpayable",
      "type": "function",
      "signature": "0xabbfdf28"
    },
    {
      "constant": false,
      "inputs": [
        {
          "name": "_officialPassword",
          "type": "string"
        },
        {
          "name": "_officialAddress",
          "type": "address"
        },
        {
          "name": "_name",
          "type": "string"
        },
        {
          "name": "_password",
          "type": "string"
        },
        {
          "name": "_isValidator",
          "type": "bool"
        }
      ],
      "name": "addOfficial",
      "outputs": [],
      "payable": false,
      "stateMutability": "nonpayable",
      "type": "function",
      "signature": "0x93da2400"
    }
  ],
  "bytecode": "0x60806040526000805560006001553480156200001a57600080fd5b5033600260006101000a81548173ffffffffffffffffffffffffffffffffffffffff021916908373ffffffffffffffffffffffffffffffffffffffff160217905550606060405190810160405280604081526020016200162260409139600390805190602001906200008e92919062000095565b5062000144565b828054600181600116156101000203166002900490600052602060002090601f016020900481019282601f10620000d857805160ff191683800117855562000109565b8280016001018555821562000109579182015b8281111562000108578251825591602001919060010190620000eb565b5b5090506200011891906200011c565b5090565b6200014191905b808211156200013d57600081600090555060010162000123565b5090565b90565b6114ce80620001546000396000f3fe60806040526004361061008d576000357c01000000000000000000000000000000000000000000000000000000009004806393da24001161006b57806393da24001461033457806395bdfe0314610556578063abbfdf281461061e578063d0e30db0146108345761008d565b806337ed41ad1461009257806351cff8d91461015a578063881f1f21146101ab575b600080fd5b34801561009e57600080fd5b50610158600480360360208110156100b557600080fd5b81019080803590602001906401000000008111156100d257600080fd5b8201836020820111156100e457600080fd5b8035906020019184600183028401116401000000008311171561010657600080fd5b91908080601f016020809104026020016040519081016040528093929190818152602001838380828437600081840152601f19601f82011690508083019250505050505050919291929050505061083e565b005b34801561016657600080fd5b506101a96004803603602081101561017d57600080fd5b81019080803573ffffffffffffffffffffffffffffffffffffffff169060200190929190505050610959565b005b3480156101b757600080fd5b50610332600480360360808110156101ce57600080fd5b81019080803590602001906401000000008111156101eb57600080fd5b8201836020820111156101fd57600080fd5b8035906020019184600183028401116401000000008311171561021f57600080fd5b91908080601f016020809104026020016040519081016040528093929190818152602001838380828437600081840152601f19601f8201169050808301925050505050505091929192908035906020019064010000000081111561028257600080fd5b82018360208201111561029457600080fd5b803590602001918460018302840111640100000000831117156102b657600080fd5b91908080601f016020809104026020016040519081016040528093929190818152602001838380828437600081840152601f19601f820116905080830192505050505050509192919290803573ffffffffffffffffffffffffffffffffffffffff169060200190929190803590602001909291905050506109ba565b005b34801561034057600080fd5b50610554600480360360a081101561035757600080fd5b810190808035906020019064010000000081111561037457600080fd5b82018360208201111561038657600080fd5b803590602001918460018302840111640100000000831117156103a857600080fd5b91908080601f016020809104026020016040519081016040528093929190818152602001838380828437600081840152601f19601f820116905080830192505050505050509192919290803573ffffffffffffffffffffffffffffffffffffffff1690602001909291908035906020019064010000000081111561042b57600080fd5b82018360208201111561043d57600080fd5b8035906020019184600183028401116401000000008311171561045f57600080fd5b91908080601f016020809104026020016040519081016040528093929190818152602001838380828437600081840152601f19601f820116905080830192505050505050509192919290803590602001906401000000008111156104c257600080fd5b8201836020820111156104d457600080fd5b803590602001918460018302840111640100000000831117156104f657600080fd5b91908080601f016020809104026020016040519081016040528093929190818152602001838380828437600081840152601f19601f820116905080830192505050505050509192919290803515159060200190929190505050610c4b565b005b34801561056257600080fd5b5061061c6004803603602081101561057957600080fd5b810190808035906020019064010000000081111561059657600080fd5b8201836020820111156105a857600080fd5b803590602001918460018302840111640100000000831117156105ca57600080fd5b91908080601f016020809104026020016040519081016040528093929190818152602001838380828437600081840152601f19601f820116905080830192505050505050509192919290505050610fa2565b005b34801561062a57600080fd5b506108326004803603608081101561064157600080fd5b810190808035906020019064010000000081111561065e57600080fd5b82018360208201111561067057600080fd5b8035906020019184600183028401116401000000008311171561069257600080fd5b91908080601f016020809104026020016040519081016040528093929190818152602001838380828437600081840152601f19601f820116905080830192505050505050509192919290803573ffffffffffffffffffffffffffffffffffffffff1690602001909291908035906020019064010000000081111561071557600080fd5b82018360208201111561072757600080fd5b8035906020019184600183028401116401000000008311171561074957600080fd5b91908080601f016020809104026020016040519081016040528093929190818152602001838380828437600081840152601f19601f820116905080830192505050505050509192919290803590602001906401000000008111156107ac57600080fd5b8201836020820111156107be57600080fd5b803590602001918460018302840111640100000000831117156107e057600080fd5b91908080601f016020809104026020016040519081016040528093929190818152602001838380828437600081840152601f19601f820116905080830192505050505050509192919290505050611190565b005b61083c6113fb565b005b80600560003373ffffffffffffffffffffffffffffffffffffffff1673ffffffffffffffffffffffffffffffffffffffff16815260200190815260200160002060030160019054906101000a900460ff16801561094a5750600560003373ffffffffffffffffffffffffffffffffffffffff1673ffffffffffffffffffffffffffffffffffffffff16815260200190815260200160002060020160405180828054600181600116156101000203166002900480156109335780601f10610911576101008083540402835291820191610933565b820191906000526020600020905b81548152906001019060200180831161091f575b505091505060405180910390208180519060200120145b151561095557600080fd5b5050565b8073ffffffffffffffffffffffffffffffffffffffff166108fc3073ffffffffffffffffffffffffffffffffffffffff16319081150290604051600060405180830381858888f193505050501580156109b6573d6000803e3d6000fd5b5050565b83600560003373ffffffffffffffffffffffffffffffffffffffff1673ffffffffffffffffffffffffffffffffffffffff16815260200190815260200160002060030160019054906101000a900460ff168015610ac65750600560003373ffffffffffffffffffffffffffffffffffffffff1673ffffffffffffffffffffffffffffffffffffffff1681526020019081526020016000206002016040518082805460018160011615610100020316600290048015610aaf5780601f10610a8d576101008083540402835291820191610aaf565b820191906000526020600020905b815481529060010190602001808311610a9b575b505091505060405180910390208180519060200120145b1515610ad157600080fd5b8284600460008373ffffffffffffffffffffffffffffffffffffffff1673ffffffffffffffffffffffffffffffffffffffff16815260200190815260200160002060040160009054906101000a900460ff168015610bde57508080519060200120600460008473ffffffffffffffffffffffffffffffffffffffff1673ffffffffffffffffffffffffffffffffffffffff1681526020019081526020016000206002016040518082805460018160011615610100020316600290048015610bcf5780601f10610bad576101008083540402835291820191610bcf565b820191906000526020600020905b815481529060010190602001808311610bbb575b50509150506040518091039020145b1515610be957600080fd5b83600460008773ffffffffffffffffffffffffffffffffffffffff1673ffffffffffffffffffffffffffffffffffffffff16815260200190815260200160002060030160008282540192505081905550610c4285610959565b50505050505050565b84600260009054906101000a900473ffffffffffffffffffffffffffffffffffffffff1673ffffffffffffffffffffffffffffffffffffffff163373ffffffffffffffffffffffffffffffffffffffff16148015610d185750808051906020012060036040518082805460018160011615610100020316600290048015610d095780601f10610ce7576101008083540402835291820191610d09565b820191906000526020600020905b815481529060010190602001808311610cf5575b50509150506040518091039020145b80610e2a5750600560003373ffffffffffffffffffffffffffffffffffffffff1673ffffffffffffffffffffffffffffffffffffffff16815260200190815260200160002060030160009054906101000a900460ff168015610e2957508080519060200120600560003373ffffffffffffffffffffffffffffffffffffffff1673ffffffffffffffffffffffffffffffffffffffff1681526020019081526020016000206002016040518082805460018160011615610100020316600290048015610e1a5780601f10610df8576101008083540402835291820191610e1a565b820191906000526020600020905b815481529060010190602001808311610e06575b50509150506040518091039020145b5b1515610e3557600080fd5b84600560008273ffffffffffffffffffffffffffffffffffffffff1673ffffffffffffffffffffffffffffffffffffffff16815260200190815260200160002060030160019054906101000a900460ff16151515610e9257600080fd5b60016000815480929190600101919050555060a0604051908101604052806001548152602001868152602001858152602001841515815260200160011515815250600560008873ffffffffffffffffffffffffffffffffffffffff1673ffffffffffffffffffffffffffffffffffffffff168152602001908152602001600020600082015181600001556020820151816001019080519060200190610f389291906113fd565b506040820151816002019080519060200190610f559291906113fd565b5060608201518160030160006101000a81548160ff02191690831515021790555060808201518160030160016101000a81548160ff02191690831515021790555090505050505050505050565b80600260009054906101000a900473ffffffffffffffffffffffffffffffffffffffff1673ffffffffffffffffffffffffffffffffffffffff163373ffffffffffffffffffffffffffffffffffffffff1614801561106f57508080519060200120600360405180828054600181600116156101000203166002900480156110605780601f1061103e576101008083540402835291820191611060565b820191906000526020600020905b81548152906001019060200180831161104c575b50509150506040518091039020145b806111815750600560003373ffffffffffffffffffffffffffffffffffffffff1673ffffffffffffffffffffffffffffffffffffffff16815260200190815260200160002060030160009054906101000a900460ff16801561118057508080519060200120600560003373ffffffffffffffffffffffffffffffffffffffff1673ffffffffffffffffffffffffffffffffffffffff16815260200190815260200160002060020160405180828054600181600116156101000203166002900480156111715780601f1061114f576101008083540402835291820191611171565b820191906000526020600020905b81548152906001019060200180831161115d575b50509150506040518091039020145b5b151561118c57600080fd5b5050565b83600560003373ffffffffffffffffffffffffffffffffffffffff1673ffffffffffffffffffffffffffffffffffffffff16815260200190815260200160002060030160019054906101000a900460ff16801561129c5750600560003373ffffffffffffffffffffffffffffffffffffffff1673ffffffffffffffffffffffffffffffffffffffff16815260200190815260200160002060020160405180828054600181600116156101000203166002900480156112855780601f10611263576101008083540402835291820191611285565b820191906000526020600020905b815481529060010190602001808311611271575b505091505060405180910390208180519060200120145b15156112a757600080fd5b83600460008273ffffffffffffffffffffffffffffffffffffffff1673ffffffffffffffffffffffffffffffffffffffff16815260200190815260200160002060040160009054906101000a900460ff1615151561130457600080fd5b600080815480929190600101919050555060a06040519081016040528060005481526020018581526020018481526020016000815260200160011515815250600460008773ffffffffffffffffffffffffffffffffffffffff1673ffffffffffffffffffffffffffffffffffffffff1681526020019081526020016000206000820151816000015560208201518160010190805190602001906113a89291906113fd565b5060408201518160020190805190602001906113c59291906113fd565b506060820151816003015560808201518160040160006101000a81548160ff021916908315150217905550905050505050505050565b565b828054600181600116156101000203166002900490600052602060002090601f016020900481019282601f1061143e57805160ff191683800117855561146c565b8280016001018555821561146c579182015b8281111561146b578251825591602001919060010190611450565b5b509050611479919061147d565b5090565b61149f91905b8082111561149b576000816000905550600101611483565b5090565b9056fea165627a7a723058201084680233c9c13d5070d2bde09e73791ea999c6089bb19dcf8fd01394008ef3002962363866653433663064316130643761656631323337323236373062653530323638653135333635343031633434326638383036656638336236313239373662",
  "source": "pragma solidity ^0.5.3;\n\ncontract Kisaan{\n    uint farmerCount = 0;\n    uint officialCount = 0;\n    address owner;\n    string ownerPassword;\n    \n    constructor() public{\n        owner = msg.sender;\n        ownerPassword = 'b68fe43f0d1a0d7aef123722670be50268e15365401c442f8806ef83b612976b';\n    }\n    \n    struct Farmer{\n        uint id;\n        string name;\n        string password;\n        uint balance;\n        bool isVerified;\n    }\n    \n    struct Offical{\n        uint id;\n        string name;\n        string password;\n        bool isValidator; //Can Validate other accounts to become officials\n        bool isVerified; //Is a registered official\n    }\n    \n    mapping (address => Farmer) farmers;\n    mapping (address => Offical) officials;\n    \n    modifier onlyOfficial(string memory _password){\n        require(officials[msg.sender].isVerified && keccak256(bytes(_password)) == keccak256(bytes(officials[msg.sender].password)));\n        _;\n    }\n    \n    modifier validOfficial(string memory _password){\n        require((msg.sender == owner && keccak256(bytes(ownerPassword)) == keccak256(bytes(_password)))\n            || (officials[msg.sender].isValidator && keccak256(bytes(officials[msg.sender].password)) == keccak256(bytes(_password))));\n        _;\n    }\n    \n    modifier validFarmer(address _farmerAddress, string memory _password){\n        require(farmers[_farmerAddress].isVerified && keccak256(bytes(farmers[_farmerAddress].password)) == keccak256(bytes(_password)));\n        _;\n    }\n\n    \n    \n    modifier notAlreadyRegisteredFarmer(address _farmerAddress){\n        require(!farmers[_farmerAddress].isVerified);\n        _;\n    }\n\n    modifier notAlreadyRegisteredOfficial(address _officialAddress){\n        require(!officials[_officialAddress].isVerified);\n        _;\n    }\n\n    // event authorityLoginSuccessful(\n    //     bool success\n    // );\n\n    // event officialLoginSuccessful(\n    //     bool success\n    // );\n\n    // event receivedGoodsSuccessful(\n    //     bool success\n    // );\n\n    // event addFarmerSuccessful(\n    //     string name\n    // );\n\n    // event addOfficialSuccessful(\n    //     bool success\n    // );\n\n    function ownerLogin\n        (string memory _password)\n        validOfficial(_password) \n        public\n    {\n        \n    }\n\n    function officialLogin\n        (string memory _password)\n        onlyOfficial(_password)\n        public\n    {\n        \n    }\n\n    function deposit() payable public {\n    }\n\n    function withdraw (address payable _farmerAddress) public {\n        _farmerAddress.transfer(address(this).balance);\n    }\n    \n    function receivedGoods\n        (string memory _password, string memory _farmerPassword, address payable _farmerAddress, uint amount) \n        onlyOfficial(_password) validFarmer(_farmerAddress, _farmerPassword) \n         public\n    {\n        farmers[_farmerAddress].balance += amount;\n        withdraw(_farmerAddress);\n        // _farmerAddress.transfer(address(this).balance);\n        // emit receivedGoodsSuccessful(true);\n    }\n    \n    function addFarmer\n        (string memory _officialPassword, address _farmerAddress, string memory _name, string memory _password) \n        onlyOfficial(_officialPassword) notAlreadyRegisteredFarmer(_farmerAddress) \n        public\n    {\n        farmerCount++;\n        farmers[_farmerAddress] = Farmer({\n                                    id: farmerCount, \n                                    name: _name, \n                                    password: _password,\n                                    balance: 0,\n                                    isVerified: true\n                                });\n        // emit addFarmerSuccessful(farmers[_farmerAddress].name);\n    }\n    \n    function addOfficial\n        (string memory _officialPassword, address _officialAddress, string memory _name, string memory _password, bool _isValidator)\n        validOfficial(_officialPassword) notAlreadyRegisteredOfficial(_officialAddress)\n        public \n    {\n        officialCount++;  \n        officials[_officialAddress] = Offical({\n                                        id: officialCount,\n                                        name: _name,\n                                        password: _password,\n                                        isValidator: _isValidator,\n                                        isVerified: true\n                                    });\n        // emit addOfficialSuccessful(true);\n    }\n    \n}",
  "sourcePath": "/home/guna_shekar02/Documents/jaikisaan/contracts/Kisaan.sol",
  "compiler": {
    "name": "solc",
    "version": "0.5.3+commit.10d17f24.Emscripten.clang"
  },
  "schemaVersion": "3.0.1",
  "updatedAt": "2019-10-05T00:34:52.060Z",
  "devdoc": {
    "methods": {}
  },
  "userdoc": {
    "methods": {}
  }
}